:1000000004308A00212C0000FF00030E8301A100B0
:100010000A08A0008A010408A2007708A300780853
:10002000A4007908A5007A08A60003170D08031399
:10003000A70003170F080313A80003170C080313E6
:10004000A90003170E080313AA00831383120B1EC3
:100050002B288B184C28220884002308F70024083A
:10006000F8002508F9002608FA00270803178D0074
:100070000313280803178F000313290803178C00A4
:1000800003132A0803178E00031320088A00210E89
:100090008300FF0E7F0E09008A110A124F288B1071
:1000A0000130AB068B108A110A122B28CC37613233
:1000B000693767172E1700000C004E34E9327410B0
:1000C000E4373A10253200002110C3204E10C22020
:1000D0004F105429491021003A308400831300083E
:1000E00003197F280630F800F701F70B7528F80B85
:1000F00074287B30F700F70B7B28800B72280800F0
:1001000041188428081285280816831608128312BD
:10011000C1188C2888128D2888168316881283129D
:100120004119942808139528081783160813831279
:10013000C1199C2888139D288817831688130000EE
:1001400083120914831609100330F700F70BA62851
:10015000831209108316091083120800C201831646
:10016000081600308312081A0130C204831688165C
:1001700000308312881A0130F7000310F70D77085A
:10018000C2048316081700308312081B0130F700E1
:10019000F70DF70DFC30F7057708C20483168817B2
:1001A00000308312881B0130F700F70DF70DF70DB3
:1001B000F830F7057708C2044208F80008008316F3
:1001C00009108910091183128910831689100816E5
:1001D000881608178817831209158316091100005D
:1001E000831209148316091000008312AE207808C8
:1001F000C100091083160910000083120914831628
:1002000009100229032900008312AE207808C000DB
:100210000910831609100812881208138813831214
:10022000410EF700F030F70577084004F800780831
:10023000C000C01F1D298316E728BE08031D222900
:10024000891023298914831689100000831209114B
:1002500083160911000083120910831609108312F6
:100260003F0EC0000F30C0054008C10080203F088D
:100270000F39C000C100802008002830B4000C30C5
:10028000B5000130B6000630B7000910831609101A
:10029000831289108316891083120911831609119C
:1002A00008128812081388130910891009110F30D9
:1002B0008312BA006C200130B3003308033C031CE6
:1002C00069290330C10080200530BA006C20B30AD0
:1002D0005D290230C10080200530BA006C20B301D6
:1002E0003308033C031C8029343033078400831314
:1002F0000008B800BE013808BF00DF20B30A70292B
:100300008A110A12522C3B0B862989294030BC00E5
:100310008A29BC0101303A02BC073C088038BD0084
:10032000BE013D08BF00DF2008003908073A031965
:10033000A3290B3A0319A829063A0319B029023A4E
:100340000319B629BB290130BA00BB008321C0299B
:10035000BE010130BF00DF200230BA006C20C0298E
:100360000130BA000230BB008321C029BE01103029
:10037000BF00DF20C0290130BE003908BF00DF20E8
:1003800008000B08B3008B13831603178C170C148B
:100390000000000083120313B31B8B1703170C0814
:1003A0007F390319152A0313B30003170D0803132C
:1003B000B40003170F080313B5003308B9009521E3
:1003C000340803178D000313350803178F00031338
:1003D0000B08B6008B13831603178C170C14000040
:1003E000000083120313B61B8B1703170C0D0E0DA1
:1003F0007F390319152A0313B30003170D080313DC
:10040000B40003170F080313B5003308B900952192
:10041000340803178D000313350803178F008D0A66
:1004200003198F0A0313C1290317031308008E3021
:10043000F7003608F8003508F900FA01F808031D3E
:100440002B2A7908F800F9010830F702F808031D93
:100450002B2AF701332A0310F81B322AF90DF80D65
:10046000F7032B2AF8138A110A129F2C3508031957
:10047000FB2AC10039080319FB2AC102031C452AC3
:100480007F30C1070318FB2A4B2A8130C102031CAD
:10049000FB2A0319FB2A4108F700F801F901FA01C8
:1004A000C0013608BF00BF173708BE003808BD00BE
:1004B0001930C1003C08BD0203186E2A0130BE028B
:1004C00003186E2ABF0203186E2AC00203186E2A90
:1004D000C00ABF0ABE0A3C08BD07A02A3B08BE02EC
:1004E0000318892A0130BF020318892AC0020318A1
:1004F000892AC00ABF0A3B08BE073C08BD07031C87
:10050000A02ABE0A031DA02ABF0A031DA02AC00AF2
:10051000A02A3A088038BF0203189F2A0130C0027F
:1005200003189F2AC00A3A088038BF073B08BE0755
:10053000031C7D2ABF0A031D7D2AC00A7D2A7A1466
:10054000C10BA32AAE2A0310BD0DBE0DBF0DC00DF9
:100550000310FA0DF90DF80DC20D5A2A421CB62AE5
:100560000310F80CF90CFA0CC20CB92AF7030319A2
:10057000FB2AC21BE22A0310BD0DBE0DBF0DC00D2C
:100580003C08BD020318CE2A0130BE020318CE2A51
:10059000BF020318CE2AC002031CF12A3B08BE0288
:1005A0000318D92A0130BF020318D92AC002031C3C
:1005B000F12A3A088038BF020318E22A0130C0024B
:1005C000031CF12AFA0A031DF12AF90A031DF12A74
:1005D000F80A031DF12AF70A0319FB2AF80CF90C93
:1005E000FA0C3608C1003A08C106C11FF92AF817EB
:1005F000FF2AF813FF2AF701F801F901FA018A111D
:100600000A12B02C8E30F7003308F7023408F900D4
:100610003508F800F917F7080319192B0310F90822
:10062000031D152BF8080319192BF90CF80CF70BFF
:100630000E2BB41F202BF809F909F80A0319F90A3F
:100640008A110A12B92C0B08B4008B1383160317F6
:100650008C170C140000000083120313B41B8B17BB
:1006600003185A2B03170C087F390313B400031720
:100670000D080313B50003170F080313B600340861
:10068000B9009521350803178D00031336080317A9
:100690008F0003130B08B7008B13831603178C17F7
:1006A0000C140000000083120313B71B8B17B30B4D
:1006B0005A2B792B03170C0D0E0D7F390313B40041
:1006C00003170D080313B50003170F080313B60033
:1006D0003408B9009521350803178D000313360837
:1006E00003178F008D0A03198F0A03100313B30B2E
:1006F000232B8A110A12EB2C3A08F801390203184D
:10070000842B3908F700902BF7010830BB00B90D96
:10071000F70D3A0877020318F700F80DBB0B872B8B
:1007200008002030341E3030B5003308F700B31F06
:10073000A12BF709F70A7708B3002D30B500B417DD
:1007400034143308B9006430BA007C237708B3004E
:1007500030307807B6003308B9000A30BA007C237D
:1007600030307707B80030307807B7003508F70029
:10077000303036020319C02BB414B41B3415D42BFB
:100780003508B6002030B500303037020319CC2BC5
:100790003414B41BB414D42B031D3414031DD42BF4
:1007A0003608B7002030B6003419DB2BB418DE2B26
:1007B0003418E12BE42B3508B90095213608B9002F
:1007C00095213708B90095213808B90095218A117B
:1007D0000A12F02C78083308B9006430BA007C2380
:1007E0007708B30078083030031DFD2BB41C042CAF
:1007F000B419042C341A2030002CB41134123414DF
:10080000F8077808B90095213308B9000A30BA0012
:100810007C237708B30078083030031D152CB419F9
:10082000192C341C192C341A2030F8077808B90018
:1008300095213030B3073308B90095218A110A1287
:10084000062D03081F3983002B10FF30AD00AF01C8
:10085000AE0183161F149F141F159F1107309C00B3
:1008600083130030F8000638831292009B30831601
:10087000920083122D112D08831687008312071111
:100880000C30970083161F1383121F139F138316B8
:100890009F1783121F1483161F109F141F159F1577
:1008A00083123D2983160108C73928388100013099
:1008B000831203178D0083168C130C1483120C08FB
:1008C0000A3C0318672C0313AC01702C031701308A
:1008D0008D0083168C130C1483120C080313AC00C8
:1008E0002C088100563003178D0000308F00031351
:1008F000C1218316011383128B100B16C0308B0499
:10090000B101B0016430BA006C200030F8001F085B
:10091000C73978049F001030F700F70B8D2C0000CA
:100920001F151F19912C1E08FA0083161E0883122A
:10093000B3001E08B400B6003308B500172A7A08C1
:10094000B8007908B7007808B6007708B500AA3073
:10095000BC00F130BB000230BA008030B900362A4A
:100960007A08B6007908B5007808B4007708B300B3
:10097000022B7808B2000108AC000B08F7008B13BB
:10098000013003178D0003132C0803178C00831606
:100990008C130C1555308D00AA308D008C148C18DA
:1009A000CF2C0C117708831203138B045C300317D0
:1009B0008D0000308F000313C1210130BA00BB004D
:1009C00083215D3003178D0000308F0003100A3043
:1009D0000313B300232B3208B3001830B400912B5B
:1009E0000130BA000230BB0083212C080A3C0318F6
:1009F000012D643003178D0000308F000313C121D7
:100A0000062D2C08B3000130B400EA2BB21B0C2DCC
:100A10003208323C031C0E2D2B1C5E2D8316081051
:100A2000831208143108023C031C362D031D1C2DB3
:100A300030086F3C031C362D3108F9003008F800EF
:100A4000F90CF80CF90CF80CF90C78089500F90C75
:100A5000790C3039F7001708CF3977049700B00ABE
:100A60000319B10A0130BA006C20122D6430BA00AB
:100A70006C20B008031D3F2DB10803195A2D310811
:100A8000F9003008F800F90CF80CF90CF80CF90C26
:100A900078089500F90C790C3039F7001708CF3930
:100AA0007704970030080319B103B0030130BA008E
:100AB0006C20392D6430BA006C20622D831608102A
:080AC00083120810822C630070
:02400E00422F3F
:00000001FF
;PIC16F877A
;CRC=7AEB  CREATED="16-Jun-22 22:41"
